:100000000C942A000C94FA010C94FA010C94FA0155
:100010000C94FA010C94FA010C94FA010C94FA0174
:100020000C94FA010C94FA010C94FA010C94FA0164
:100030000C94FA010C94FA010C94FA010C94FA0154
:100040000C94FA010C94FA010C94FA010C94FA0144
:100050000C94FA0111241FBECFE5D8E0DEBFCDBF5E
:0C0060000E94B4010C94EF01F894FFCF53
:10006C00843008F0D0C0683008F0CFC0433008F0BE
:10007C00CEC08130C1F138F0823009F464C08330D5
:10008C0009F491C0C6C0413081F018F04230F1F053
:10009C00C2C02AB381E090E002C0880F991F6A9514
:1000AC00E2F7822B8ABB80E008952AB381E090E0CE
:1000BC0002C0880F991F6A95E2F7982F90959223AA
:1000CC009ABB9BB3892B8BBB80E008952AB381E04C
:1000DC0090E002C0880F991F6A95E2F78095822301
:1000EC008ABB80E00895413081F018F04230F1F085
:1000FC0094C027B381E090E002C0880F991F6A95E5
:10010C00E2F7822B87BB80E0089527B381E090E073
:10011C0002C0880F991F6A95E2F7982F9095922349
:10012C0097BB98B3892B88BB80E0089527B381E0F7
:10013C0090E002C0880F991F6A95E2F780958223A0
:10014C0087BB80E00895413081F018F04230F1F027
:10015C0066C024B381E090E002C0880F991F6A95B5
:10016C00E2F7822B84BB80E0089524B381E090E019
:10017C0002C0880F991F6A95E2F7982F90959223E9
:10018C0094BB95B3892B85BB80E0089524B381E0A3
:10019C0090E002C0880F991F6A95E2F78095822340
:1001AC0084BB80E00895413081F018F04230F1F0CA
:1001BC0038C021B381E090E002C0880F991F6A9586
:1001CC00E2F7822B81BB80E0089521B381E090E0BF
:1001DC0002C0880F991F6A95E2F7982F9095922389
:1001EC0091BB92B3892B82BB80E0089521B381E04F
:1001FC0090E002C0880F991F6A95E2F780958223E0
:10020C0081BB80E0089582E0089583E0089584E046
:10021C00089580E0089580E0089580E0089580E0DE
:06022C00089580E0089532
:10023200843008F088C0683008F087C0423008F087
:1002420086C0813031F138F0823009F440C0833009
:1002520009F45BC07EC0442319F0413071F07BC0C9
:1002620029B381E090E002C0880F991F6A95E2F7F6
:100272008095822389BB80E0089529B381E090E0D4
:1002820002C0880F991F6A95E2F7822B89BB80E032
:100292000895442319F0413071F05FC026B381E024
:1002A20090E002C0880F991F6A95E2F78095822339
:1002B20086BB80E0089526B381E090E002C0880FFB
:1002C200991F6A95E2F7822B86BB80E0089544234A
:1002D20019F0413071F043C023B381E090E002C0D5
:1002E200880F991F6A95E2F78095822383BB80E08D
:1002F200089523B381E090E002C0880F991F6A95A8
:10030200E2F7822B83BB80E00895442319F0413049
:1003120071F027C020B381E090E002C0880F991FDE
:100322006A95E2F78095822380BB80E0089520B32E
:1003320081E090E002C0880F991F6A95E2F7822B54
:1003420080BB80E0089582E0089583E0089584E010
:10035200089580E0089580E0089580E0089580E0A7
:06036200089580E00895FB
:1003680040E060E080E00E94360040E060E080E02D
:100378000E94190140E061E080E00E94360040E000
:1003880061E080E00E94190141E060E080E00E94A5
:1003980019012FEF89E698E1215080409040E1F75C
:1003A80000C0000040E060E080E00E94190141E0E8
:1003B80061E080E00E9419012FEF89E698E1215061
:1003C80080409040E1F700C0000040E061E080E03C
:0603D8000E941901D9CFBB
:1003DE00EC010E94FF010E94FE01CE010E9400026C
:0603EE00CE010E94FC019B
:0403F4000C94000065
:0403F8000E9434002B
:0203FC00089562
:0203FE00089560
:0204000008955D
:00000001FF
