:100000000C942A000C9415020C9415020C94150201
:100010000C9415020C9415020C9415020C94150204
:100020000C9415020C9415020C9415020C941502F4
:100030000C9415020C9415020C9415020C941502E4
:100040000C9415020C9415020C9415020C941502D4
:100050000C94150211241FBECFE5D8E0DEBFCDBF42
:0C0060000E94BF010C940A02F894FFCF2C
:10006C00843008F0D0C0683008F0CFC0433008F0BE
:10007C00CEC08130C1F138F0823009F464C08330D5
:10008C0009F491C0C6C0413081F018F04230F1F053
:10009C00C2C02AB381E090E002C0880F991F6A9514
:1000AC00E2F7822B8ABB80E008952AB381E090E0CE
:1000BC0002C0880F991F6A95E2F7982F90959223AA
:1000CC009ABB9BB3892B8BBB80E008952AB381E04C
:1000DC0090E002C0880F991F6A95E2F78095822301
:1000EC008ABB80E00895413081F018F04230F1F085
:1000FC0094C027B381E090E002C0880F991F6A95E5
:10010C00E2F7822B87BB80E0089527B381E090E073
:10011C0002C0880F991F6A95E2F7982F9095922349
:10012C0097BB98B3892B88BB80E0089527B381E0F7
:10013C0090E002C0880F991F6A95E2F780958223A0
:10014C0087BB80E00895413081F018F04230F1F027
:10015C0066C024B381E090E002C0880F991F6A95B5
:10016C00E2F7822B84BB80E0089524B381E090E019
:10017C0002C0880F991F6A95E2F7982F90959223E9
:10018C0094BB95B3892B85BB80E0089524B381E0A3
:10019C0090E002C0880F991F6A95E2F78095822340
:1001AC0084BB80E00895413081F018F04230F1F0CA
:1001BC0038C021B381E090E002C0880F991F6A9586
:1001CC00E2F7822B81BB80E0089521B381E090E0BF
:1001DC0002C0880F991F6A95E2F7982F9095922389
:1001EC0091BB92B3892B82BB80E0089521B381E04F
:1001FC0090E002C0880F991F6A95E2F780958223E0
:10020C0081BB80E0089582E0089583E0089584E046
:10021C00089580E0089580E0089580E0089580E0DE
:06022C00089580E0089532
:10023200843008F053C0633008F052C08130C1F0FE
:1002420028F0823039F18330B9F14CC0613041F08D
:1002520018F0623051F048C08FEF8ABB80E00895F9
:100262001ABA8FEF8BBB80E008951ABA80E0089526
:10027200613041F018F0623051F038C08FEF87BB27
:1002820080E0089517BA8FEF88BB80E0089517BA0F
:1002920080E00895613041F018F0623051F028C0DA
:1002A2008FEF84BB80E0089514BA8FEF85BB80E0A6
:1002B200089514BA80E00895613041F018F0623078
:1002C20051F018C08FEF81BB80E0089511BA8FEF13
:1002D20082BB80E0089511BA80E0089582E008951B
:1002E20084E0089580E0089580E0089580E0089514
:0802F20080E0089580E008950A
:1002FA008430D0F56830D0F5813091F028F0823022
:10030A00D9F0833029F134C089B390E002C09595C1
:10031A0087956A95E2F78170FA01808380E00895F3
:10032A0086B390E002C0959587956A95E2F7817049
:10033A00FA01808380E0089583B390E002C0959526
:10034A0087956A95E2F78170FA01808380E00895C3
:10035A0080B390E002C0959587956A95E2F781701F
:10036A00FA01808380E0089582E0089583E0089589
:04037A0080E0089582
:10037E00CF93DF930F92CDB7DEB760E080E00E949F
:10038E00190160E080E00E94F00141E060E081E050
:10039E000E94360081E0898310E0AE014F5F5F4F0F
:1003AE0060E081E00E947D0189818111F6CF81118B
:1003BE00F4CF1F5F612F0E94F00107C0AE014F5FA7
:1003CE005F4F60E081E00E947D0189818823B1F357
:0203DE00E4CF6A
:1003E0008430A0F4813049F028F0823049F0833025
:1003F00051F00EC06BBB80E0089568BB80E00895AB
:1004000065BB80E0089562BB80E0089582E00895B6
:0404100080E00895EB
:10041400EC010E941A020E941902CE010E941B02E2
:06042400CE010E94170248
:04042A000C9400002E
:04042E000E943400F4
:0204320008952B
:02043400089529
:02043600089527
:00000001FF
